{
  "contractName": "ChainlinkETHUSDPriceConsumer",
  "abi": [
    {
      "inputs": [],
      "stateMutability": "nonpayable",
      "type": "constructor"
    },
    {
      "inputs": [],
      "name": "getLatestPrice",
      "outputs": [
        {
          "internalType": "int256",
          "name": "",
          "type": "int256"
        }
      ],
      "stateMutability": "view",
      "type": "function"
    },
    {
      "inputs": [],
      "name": "getDecimals",
      "outputs": [
        {
          "internalType": "uint8",
          "name": "",
          "type": "uint8"
        }
      ],
      "stateMutability": "view",
      "type": "function"
    }
  ],
  "bytecode": "0x608060405234801561001057600080fd5b50735f4ec3df9cbd43714fe2740f5e3616155c5b84196000806101000a81548173ffffffffffffffffffffffffffffffffffffffff021916908373ffffffffffffffffffffffffffffffffffffffff1602179055506102e9806100746000396000f3fe608060405234801561001057600080fd5b50600436106100365760003560e01c80638e15f4731461003b578063f0141d8414610059575b600080fd5b61004361007d565b6040518082815260200191505060405180910390f35b61006161020a565b604051808260ff1660ff16815260200191505060405180910390f35b60008060008060008060009054906101000a900473ffffffffffffffffffffffffffffffffffffffff1673ffffffffffffffffffffffffffffffffffffffff1663feaf968c6040518163ffffffff1660e01b815260040160a06040518083038186803b1580156100ec57600080fd5b505afa158015610100573d6000803e3d6000fd5b505050506040513d60a081101561011657600080fd5b8101908080519060200190929190805190602001909291908051906020019092919080519060200190929190805190602001909291905050509450945050935093506000831215801561016a575060008214155b801561018e57508369ffffffffffffffffffff168169ffffffffffffffffffff1610155b610200576040517f08c379a00000000000000000000000000000000000000000000000000000000081526004018080602001828103825260178152602001807f496e76616c696420636861696e6c696e6b20707269636500000000000000000081525060200191505060405180910390fd5b8294505050505090565b60008060009054906101000a900473ffffffffffffffffffffffffffffffffffffffff1673ffffffffffffffffffffffffffffffffffffffff1663313ce5676040518163ffffffff1660e01b815260040160206040518083038186803b15801561027357600080fd5b505afa158015610287573d6000803e3d6000fd5b505050506040513d602081101561029d57600080fd5b810190808051906020019092919050505090509056fea2646970667358221220f5017a57e17d1b3cb1e66745defc8b177865c0dfab7a89853bdf18f2460f3f4864736f6c63430006060033",
  "immutableReferences": {},
  "source": "// SPDX-License-Identifier: MIT\npragma solidity =0.6.6;\n\nimport \"./AggregatorV3Interface.sol\";\n\ncontract ChainlinkETHUSDPriceConsumer {\n\n    AggregatorV3Interface internal priceFeed;\n    constructor () public {\n        priceFeed = AggregatorV3Interface(0x5f4eC3Df9cbd43714FE2740f5E3616155c5b8419);\n    }\n\n    /**\n     * Returns the latest price\n     */\n    function getLatestPrice() public view returns (int) {\n        (uint80 roundID, int price, , uint256 updatedAt, uint80 answeredInRound) = priceFeed.latestRoundData();\n        require(price >= 0 && updatedAt!= 0 && answeredInRound >= roundID, \"Invalid chainlink price\");\n        \n        return price;\n    }\n\n    function getDecimals() public view returns (uint8) {\n        return priceFeed.decimals();\n    }\n}",
  "sourcePath": "/Users/gubukson/WUSD-WMF/contracts/Token/Oracle/ChainlinkETHUSDPriceConsumer.sol",
  "compiler": {
    "name": "solc",
    "version": "0.6.6+commit.6c089d02.Emscripten.clang"
  },
  "schemaVersion": "3.4.4",
  "updatedAt": "2022-01-12T06:43:16.758Z",
  "devdoc": {
    "methods": {}
  },
  "userdoc": {
    "methods": {
      "getLatestPrice()": {
        "notice": "Returns the latest price"
      }
    }
  }
}