{
  "contractName": "WUSDPoolLibrary",
  "abi": [
    {
      "inputs": [
        {
          "internalType": "uint256",
          "name": "col_price",
          "type": "uint256"
        },
        {
          "internalType": "uint256",
          "name": "collateral_amount_d18",
          "type": "uint256"
        }
      ],
      "name": "calcMint1t1WUSD",
      "outputs": [
        {
          "internalType": "uint256",
          "name": "",
          "type": "uint256"
        }
      ],
      "stateMutability": "pure",
      "type": "function"
    },
    {
      "inputs": [
        {
          "internalType": "uint256",
          "name": "WMF_price_usd",
          "type": "uint256"
        },
        {
          "internalType": "uint256",
          "name": "WMF_amount_d18",
          "type": "uint256"
        }
      ],
      "name": "calcMintAlgorithmicWUSD",
      "outputs": [
        {
          "internalType": "uint256",
          "name": "",
          "type": "uint256"
        }
      ],
      "stateMutability": "pure",
      "type": "function"
    },
    {
      "inputs": [
        {
          "internalType": "uint256",
          "name": "col_price_usd",
          "type": "uint256"
        },
        {
          "internalType": "uint256",
          "name": "WUSD_amount",
          "type": "uint256"
        }
      ],
      "name": "calcRedeem1t1WUSD",
      "outputs": [
        {
          "internalType": "uint256",
          "name": "",
          "type": "uint256"
        }
      ],
      "stateMutability": "pure",
      "type": "function"
    },
    {
      "inputs": [
        {
          "internalType": "uint256",
          "name": "total_supply",
          "type": "uint256"
        },
        {
          "internalType": "uint256",
          "name": "global_collateral_ratio",
          "type": "uint256"
        },
        {
          "internalType": "uint256",
          "name": "global_collat_value",
          "type": "uint256"
        }
      ],
      "name": "recollateralizeAmount",
      "outputs": [
        {
          "internalType": "uint256",
          "name": "",
          "type": "uint256"
        }
      ],
      "stateMutability": "pure",
      "type": "function"
    },
    {
      "inputs": [
        {
          "internalType": "uint256",
          "name": "collateral_amount",
          "type": "uint256"
        },
        {
          "internalType": "uint256",
          "name": "col_price",
          "type": "uint256"
        },
        {
          "internalType": "uint256",
          "name": "global_collat_value",
          "type": "uint256"
        },
        {
          "internalType": "uint256",
          "name": "WUSD_total_supply",
          "type": "uint256"
        },
        {
          "internalType": "uint256",
          "name": "global_collateral_ratio",
          "type": "uint256"
        }
      ],
      "name": "calcRecollateralizeWUSDInner",
      "outputs": [
        {
          "internalType": "uint256",
          "name": "",
          "type": "uint256"
        },
        {
          "internalType": "uint256",
          "name": "",
          "type": "uint256"
        }
      ],
      "stateMutability": "pure",
      "type": "function"
    }
  ],
  "bytecode": "0x610702610026600b82828239805160001a60731461001957fe5b30600052607381538281f3fe73000000000000000000000000000000000000000030146080604052600436106100615760003560e01c80630ff24ec1146100665780634e69d915146100bc578063516e90361461010857806356697238146101545780635d115920146101c5575b600080fd5b6100a66004803603606081101561007c57600080fd5b81019080803590602001909291908035906020019092919080359060200190929190505050610211565b6040518082815260200191505060405180910390f35b6100f2600480360360408110156100d257600080fd5b81019080803590602001909291908035906020019092919050505061025b565b6040518082815260200191505060405180910390f35b61013e6004803603604081101561011e57600080fd5b81019080803590602001909291908035906020019092919050505061028d565b6040518082815260200191505060405180910390f35b6101a8600480360360a081101561016a57600080fd5b8101908080359060200190929190803590602001909291908035906020019092919080359060200190929190803590602001909291905050506102bf565b604051808381526020018281526020019250505060405180910390f35b6101fb600480360360408110156101db57600080fd5b8101908080359060200190929190803590602001909291905050506103ba565b6040518082815260200191505060405180910390f35b60008061023c620f424061022e86886103ec90919063ffffffff16565b61047290919063ffffffff16565b9050610251838261049f90919063ffffffff16565b9150509392505050565b6000610285620f424061027785856103ec90919063ffffffff16565b61047290919063ffffffff16565b905092915050565b60006102b7620f42406102a985856103ec90919063ffffffff16565b61047290919063ffffffff16565b905092915050565b60008060006102ec620f42406102de898b6103ec90919063ffffffff16565b61047290919063ffffffff16565b905060006103188661030a620f42408a6103ec90919063ffffffff16565b61047290919063ffffffff16565b90506000610368620f424061035a610339858b6103ec90919063ffffffff16565b61034c8b8b6103ec90919063ffffffff16565b61049f90919063ffffffff16565b61047290919063ffffffff16565b9050600081841161037b5783905061037f565b8190505b6103a78a610399620f4240846103ec90919063ffffffff16565b61047290919063ffffffff16565b8195509550505050509550959350505050565b60006103e4836103d6620f4240856103ec90919063ffffffff16565b61047290919063ffffffff16565b905092915050565b6000808314156103ff576000905061046c565b600082840290508284828161041057fe5b0414610467576040517f08c379a000000000000000000000000000000000000000000000000000000000815260040180806020018281038252602c815260200180610653602c913960400191505060405180910390fd5b809150505b92915050565b6000610497838360405180606001604052806025815260200161067f602591396104cc565b905092915050565b60006104c483836040518060600160405280602981526020016106a460299139610592565b905092915050565b60008083118290610578576040517f08c379a00000000000000000000000000000000000000000000000000000000081526004018080602001828103825283818151815260200191508051906020019080838360005b8381101561053d578082015181840152602081019050610522565b50505050905090810190601f16801561056a5780820380516001836020036101000a031916815260200191505b509250505060405180910390fd5b50600083858161058457fe5b049050809150509392505050565b600083831115829061063f576040517f08c379a00000000000000000000000000000000000000000000000000000000081526004018080602001828103825283818151815260200191508051906020019080838360005b838110156106045780820151818401526020810190506105e9565b50505050905090810190601f1680156106315780820380516001836020036101000a031916815260200191505b509250505060405180910390fd5b506000838503905080915050939250505056fe536166654d61746855706772616465536166653a206d756c7469706c69636174696f6e206f766572666c6f77536166654d61746855706772616465536166653a206469766973696f6e206279207a65726f536166654d61746855706772616465536166653a207375627472616374696f6e206f766572666c6f77a26469706673582212208dab6b9a413d87fcdc556c4fcc4662e9150b6efd5d0cf0eb6d47d97d5a2de99664736f6c63430006060033",
  "immutableReferences": {},
  "source": "// SPDX-License-Identifier: GPL-2.0-or-later\npragma solidity =0.6.6;\n\nimport '../module/math/SafeMathupgradeable.sol';\n\n\nlibrary WUSDPoolLibrary {\n    using SafeMathUpgradeSafe for uint256;\n\n    // Constants for various precisions\n    uint256 private constant PRICE_PRECISION = 1e6;\n\n    // ================ Structs ================\n    // Needed to lower stack size\n    struct MintFF_Params {\n        uint256 WMF_price_usd; \n        uint256 col_price_usd;\n        uint256 WMF_amount;\n        uint256 collateral_amount;\n        uint256 col_ratio;\n    }\n\n    struct BuybackWMF_Params {\n        uint256 excess_collateral_dollar_value_d18;\n        uint256 WMF_price_usd;\n        uint256 col_price_usd;\n        uint256 WMF_amount;\n    }\n\n    // ================ Functions ================\n\n    function calcMint1t1WUSD(uint256 col_price, uint256 collateral_amount_d18) public pure returns (uint256) {\n        return (collateral_amount_d18.mul(col_price)).div(1e6);\n    }\n\n    function calcMintAlgorithmicWUSD(uint256 WMF_price_usd, uint256 WMF_amount_d18) public pure returns (uint256) {\n        return WMF_amount_d18.mul(WMF_price_usd).div(1e6);\n    }\n\n    // Must be internal because of the struct\n    function calcMintFractionalWUSD(MintFF_Params memory params) internal pure returns (uint256, uint256) {\n        // Since solidity truncates division, every division operation must be the last operation in the equation to ensure minimum error\n        // The contract must check the proper ratio was sent to mint WUSD. We do this by seeing the minimum mintable WUSD based on each amount \n        uint256 WMF_dollar_value_d18;\n        uint256 c_dollar_value_d18;\n        \n        // Scoping for stack concerns\n        {    \n            // USD amounts of the collateral and the WMF\n            WMF_dollar_value_d18 = params.WMF_amount.mul(params.WMF_price_usd).div(1e6);\n            c_dollar_value_d18 = params.collateral_amount.mul(params.col_price_usd).div(1e6);\n\n        }\n        uint calculated_WMF_dollar_value_d18 = \n                    (c_dollar_value_d18.mul(1e6).div(params.col_ratio))\n                    .sub(c_dollar_value_d18);\n\n        uint calculated_WMF_needed = calculated_WMF_dollar_value_d18.mul(1e6).div(params.WMF_price_usd);\n\n        return (\n            c_dollar_value_d18.add(calculated_WMF_dollar_value_d18),\n            calculated_WMF_needed\n        );\n    }\n\n    function calcRedeem1t1WUSD(uint256 col_price_usd, uint256 WUSD_amount) public pure returns (uint256) {\n        return WUSD_amount.mul(1e6).div(col_price_usd);\n    }\n\n    // Must be internal because of the struct\n    function calcBuyBackWMF(BuybackWMF_Params memory params) internal pure returns (uint256) {\n        // If the total collateral value is higher than the amount required at the current collateral ratio then buy back up to the possible WMF with the desired collateral\n        require(params.excess_collateral_dollar_value_d18 > 0, \"No excess collateral to buy back!\");\n\n        // Make sure not to take more than is available\n        uint256 WMF_dollar_value_d18 = params.WMF_amount.mul(params.WMF_price_usd).div(1e6);\n        require(WMF_dollar_value_d18 <= params.excess_collateral_dollar_value_d18, \"You are trying to buy back more than the excess!\");\n\n        // Get the equivalent amount of collateral based on the market value of WMF provided \n        uint256 collateral_equivalent_d18 = WMF_dollar_value_d18.mul(1e6).div(params.col_price_usd);\n        //collateral_equivalent_d18 = collateral_equivalent_d18.sub((collateral_equivalent_d18.mul(params.buyback_fee)).div(1e6));\n\n        return (\n            collateral_equivalent_d18\n        );\n\n    }\n\n\n    // Returns value of collateral that must increase to reach recollateralization target (if 0 means no recollateralization)\n    function recollateralizeAmount(uint256 total_supply, uint256 global_collateral_ratio, uint256 global_collat_value) public pure returns (uint256) {\n        uint256 target_collat_value = total_supply.mul(global_collateral_ratio).div(1e6); // We want 18 decimals of precision so divide by 1e6; total_supply is 1e18 and global_collateral_ratio is 1e6\n        // Subtract the current value of collateral from the target value needed, if higher than 0 then system needs to recollateralize\n        return target_collat_value.sub(global_collat_value); // If recollateralization is not needed, throws a subtraction underflow\n        // return(recollateralization_left);\n    }\n\n    function calcRecollateralizeWUSDInner(\n        uint256 collateral_amount, \n        uint256 col_price,\n        uint256 global_collat_value,\n        uint256 WUSD_total_supply,\n        uint256 global_collateral_ratio\n    ) public pure returns (uint256, uint256) {\n        uint256 collat_value_attempted = collateral_amount.mul(col_price).div(1e6);\n        uint256 effective_collateral_ratio = global_collat_value.mul(1e6).div(WUSD_total_supply); //returns it in 1e6\n        uint256 recollat_possible = (global_collateral_ratio.mul(WUSD_total_supply).sub(WUSD_total_supply.mul(effective_collateral_ratio))).div(1e6);\n\n        uint256 amount_to_recollat;\n        if(collat_value_attempted <= recollat_possible){\n            amount_to_recollat = collat_value_attempted;\n        } else {\n            amount_to_recollat = recollat_possible;\n        }\n\n        return (amount_to_recollat.mul(1e6).div(col_price), amount_to_recollat);\n    }\n\n}",
  "sourcePath": "/Users/gubukson/WUSD-WMF/contracts/Token/Pools/WUSDPoolLibrary.sol",
  "compiler": {
    "name": "solc",
    "version": "0.6.6+commit.6c089d02.Emscripten.clang"
  },
  "schemaVersion": "3.4.4",
  "updatedAt": "2022-01-12T06:43:16.782Z",
  "devdoc": {
    "methods": {}
  },
  "userdoc": {
    "methods": {}
  }
}